:02000002D0002C
:1040000000400D0068520D00000006000C00050184
:084010000401BD0B00000000DB
:0440180018500D002F
:10401C0009480A49884208B505D0094A824202D0AB
:10402C00121A00F0B1FF0748074A0021121A00F0DB
:10403C00B9FF014808BD00BFC0E50320D4510D00F5
:10404C002CE603202CE60320F0E7032070B5074E86
:10405C00074C00F0DBFBA41BA4080025A54200D1F3
:10406C0070BD56F8043B98470135F7E7A0510D0099
:10407C00C4510D0000F01BB808B500F029F8BDE8DC
:10408C00084000F085BB00F02FBA00F035BA00787C
:10409C00B0FA80F04009704701230370704710B5E7
:1040AC000446006808B100F027FA204610BD08B598
:1040BC0000210E2000F0C2FE0121082000F0BEFEFF
:1040CC0000F0AAFCBDE808404FF4165100F098BC73
:1040DC0073B50E2000F0C3FE174D286000F09CFC59
:1040EC002C68002C064625DA2D2100F0C9FA614215
:1040FC000A22304600F0D3FA304600F0C4FA0F4BD7
:10410C0028681A888242B8BF02461A800C4B19885C
:10411C008142A8BF01461980FF23009392B200236D
:10412C0089B200F0F3FA0146082002B0BDE87040F5
:10413C0000F0ACBE2146DBE740E603203CE6032062
:10414C00C0E5032038B50A4C0A4BA36000250320B8
:10415C002560A580A57100F03BF90749074A204668
:10416C0000F0FAFE29460120BDE8384000F038B9CD
:10417C0030E603200000FFFFAB400D002CE60320CF
:10418C0008B5024B1B689B68019308BD68020300CD
:10419C0008B5024B1B68DB68019308BD680203007D
:1041AC0008B5024B1B685B68019308BD2C02030029
:1041BC0008B5024B1B689B68019308BD2C020300D9
:1041CC0008B5024B1B68DB68019308BD2C02030089
:1041DC0008B5024B1B689B6A019308BD2C020300B7
:1041EC0008B5024B1B681B6B019308BD2C02030026
:1041FC0008B5024B1B689B6F019308BD2C02030092
:10420C0008B5024B1B685B68019308BD18020300DC
:10421C0008B5024B1B685B69019308BD18020300CB
:10422C0008B5024B1B685B6C019308BD4802030088
:10423C0008B5024B1B689B6C019308BD4802030038
:10424C0008B5024B1B685B69019308BD640203004F
:10425C0008B5024B1B681B68019308BD3C020300A8
:10426C0008B5024B1B68DB68019308BD3C020300D8
:10427C0008B5024B1B681B69019308BD3C02030087
:10428C0008B5024B1B685B69019308BD3C02030037
:10429C0008B5024B1B689B69019308BD3C020300E7
:1042AC0008B5024B1B68DB69019308BD3C02030097
:1042BC0008B5024B1B681B6A019308BD3C02030046
:1042CC0008B5024B1B689B6A019308BD3C020300B6
:1042DC0008B5024B1B681B6A019308BD280203003A
:1042EC0008B5024B1B685B6A019308BD28020300EA
:1042FC0008B5024B1B689B6A019308BD280203009A
:10430C0008B5024B1B68DB6A019308BD2802030049
:10431C0008B5024B1B681B6B019308BD28020300F8
:10432C0008B5024B1B685B6B019308BD28020300A8
:10433C0008B5024B1B681B6C019308BD28020300D7
:10434C0008B5024B1B68DB69019308BD3002030002
:10435C0008B5024B1B681B6A019308BD30020300B1
:10436C0008B5024B1B681B68019308BD4C02030087
:10437C0008B5024B1B685B68019308BD4C02030037
:10438C0008B5024B1B681B69019308BD4C02030066
:10439C0008B5024B1B685B69019308BD4C02030016
:1043AC0008B5024B1B689B69019308BD4C020300C6
:1043BC0008B5024B1B68DB69019308BD4C02030076
:1043CC0008B5024B1B681B6A019308BD4C02030025
:1043DC0008B5024B1B685B68019308BD2002030003
:1043EC0008B5024B1B68DB6A019308BD2002030071
:1043FC0008B5034B1B68D3F88830019308BD000047
:10440C002002030008B5034B1B68D3F894300193CA
:10441C0008BD00002002030008B5024B1B685B6856
:10442C00019308BD4002030008B5024B1B689B6852
:10443C00019308BD4002030008B5024B1B68DB6802
:10444C00019308BD4002030008B5024B1B681B69B1
:10445C00019308BD4002030008B5024B1B685B6961
:10446C00019308BD4002030008B5024B1B689B6911
:10447C00019308BD4002030008B5024B1B68DB69C1
:10448C00019308BD4002030008B5024B1B681B6A70
:10449C00019308BD4002030008B5024B1B681B6B5F
:1044AC00019308BD4002030008B5024B1B685B6B0F
:1044BC00019308BD4002030008B5024B1B681B6C3E
:1044CC00019308BD4002030008B5024B1B685B6CEE
:1044DC00019308BD4002030008B5024B1B68DB6B5F
:1044EC00019308BD4402030008B5024B1B681B680E
:1044FC00019308BD1C02030008B5024B1B685B68E6
:10450C00019308BD1C02030008B5024B1B685B6CD1
:10451C00019308BD1C020300002240681146FFF7FE
:10452C00B3BF002240681146FFF7BEBF40680022AF
:10453C00FFF7B2BF4068002281F00101FFF79CBF7A
:10454C00002340681A461946FFF78EBF00234068C7
:10455C001A461946FFF780BF002240681146FFF744
:10456C0073BF002240681146FFF75EBF406800220F
:10457C000221FFF761BF002340681A46FFF74CBFCA
:10458C00024B03225A60024A1A60704744E6032029
:10459C0034500D0010B5044608462170FFF7D0FECC
:1045AC0000236360204610BD10B5094B094C022254
:1045BC0000201A60084B2060A080A071A360FFF758
:1045CC0007FF2046054A0649BDE8104000F0C4BC70
:1045DC0058E603204CE603200000FFFF2CE60320E6
:1045EC00AB400D0010B50446006808B1FFF720FE83
:1045FC00204610BD10B58368044613B10322014652
:10460C009847204610BD000010B5064C00232046EC
:10461C002360FFF705FE2046034A0449BDE810401D
:10462C0000F09ABC5CE603202CE60320F1450D005B
:10463C00F8B506460D468F180024BD420CD03368E1
:10464C0015F8011B9B6830469847031E01DB1C4480
:10465C00F3E7002C08BF1C462046F8BD13B50446F2
:10466C00084659B1019100F0C9FC23680199DB6837
:10467C000246204602B0BDE81040184702B010BDFB
:10468C0003689B68184738B50D210546FFF7F8FFFE
:10469C000A2104462846FFF7F3FF204438BD30B505
:1046AC008BB000238DF82430012A98BF0A2209AC64
:1046BC000D46B1FBF2F101FB125303F0FF03092B82
:1046CC0094BF30333733DBB2AA4204F8013DEFD943
:1046DC002146FFF7C3FF0BB030BD002340681A46DC
:1046EC001946FFF7B9BE0000014B024A1A60704729
:1046FC0060E6032068500D00024B1A68024B1A60EA
:10470C00704700BFC4E5032064E603208A4210B55D
:10471C0007D0029C401AE41A6043521A90FBF2F044
:10472C00184410BD10B50446FFF764FF204610BDB9
:10473C000348044A04490023836000F00DBC00BF09
:10474C0068E603202CE6032031470D00014B18606E
:10475C00704700BFC8E5032008B50B4B43B100F010
:10476C005BF903681B699847002801DDAFF30080F3
:10477C00064B43B100F0CEF903681B69984700283B
:10478C0001DDAFF3008008BD000000000000000058
:10479C0008B5FFF7E1FFFFF73BFD014B186008BDC3
:1047AC00D4E703200248034A0349121A00F0ECBB79
:1047BC0000F4032004F40320D0510D0007B50023AE
:1047CC0000931A466FF07701FFF71CFE03B05DF8FB
:1047DC0004FB000007B543880A2B08D0502B0BD1E3
:1047EC00094B1B684BB103B05DF804EB1847FFF79E
:1047FC00E5FF03B05DF804FB002300931A466FF04D
:10480C007701FFF7FFFDF4E77CE6032038B5124C87
:10481C001248134D0021FFF777FE2368AB42114B72
:10482C000CBF012200221A7002D0FFF7BBFF2560DB
:10483C00FFF7E6FC044600F0BDFB0B4B13B1204622
:10484C00AFF3008000210848FFF746FEBDE8384072
:10485C0006480021FFF7CCBD00F4032059470D009A
:10486C001E1C279A78E6032000000000E1470D008B
:10487C00704710B51821044600F073FB204610BD9C
:10488C00F0B5037D062B8DB00E4600F104074FF0FA
:10489C00000412D000F1080515F8011D0A2230465B
:1048AC00FFF7FDFEAF42044419D0002CF4D02E21AA
:1048BC003046FFF7E5FE0444EEE72F236A463946FF
:1048CC000A208DF80040FFF7BBFC684600F096FB11
:1048DC0033680246DB6869463046984704462046F2
:1048EC000DB0F0BD10B5054B0446112240F8043B49
:1048FC00002100F057FB204610BD00BF90500D006A
:10490C000346074A10B543F8042B01F1100251F885
:10491C00044B43F8044B9142F9D10A781A7010BD3C
:10492C0090500D0010B59DF8084044EA032343EA6B
:10493C00024242EA016104234160037510BD00008C
:10494C0013B5054B0360CB7800938B784A780978C4
:10495C00FFF7E8FF02B010BD90500D004174704796
:10496C00704708B50021007CFFF71AFD40EAE070A3
:10497C0008BD08B50121007CFFF712FD40EAE0708C
:10498C0008BD08B5007CFFF703FD20EAE07008BD08
:10499C0008B5007CFFF7F4FC20EAE07008BD13B505
:1049AC000446007C0191FFF7F3FC0028019901DC1F
:1049BC00607C20B1207CFFF7FBFC20EAE07002B0A9
:1049CC0010BD007CFFF7FCBC10B51421044600F0B0
:1049DC00C8FA204610BD000010B54FF47A73044697
:1049EC0008460021C4E90113044B23600123207401
:1049FC0063741146FFF7B4FC204610BDA4500D00A3
:104A0C00007C0022FFF7B4BC10B514220446002130
:104A1C0000F0C8FA204610BD10B5104C88B003A8A1
:104A2C00FFF7F2FF2178BFF35B8F11F0010111D179
:104A3C0020460191FFF72BFB019958B103AA0848B6
:104A4C00FFF7CAFF2046FFF727FB064A0649044832
:104A5C0000F082FA024808B010BD00BF80E60320C7
:104A6C0084E603202CE603206D490D007047417449
:104A7C00704708B5007CFFF723FC20EAE07008BD06
:104A8C0008B5007CFFF7F4FB20EAE07008BD08B520
:104A9C00007CFFF7FDFB40EAE07008BD08B5007C28
:104AAC00FFF7EEFB40EAE07008BD007CFFF7F8BBB7
:104ABC0037B5457C04462DB1207C03B0BDE83040B1
:104ACC00FFF7CEBB007C0191FFF7FAFB00280199A0
:104ADC00F2DC284603B030BD10B51421044600F0BA
:104AEC0040FA204610BD000010B54FF0000C0446F3
:104AFC00084611464FF47A72C4E901C2044A226096
:104B0C000122207462741A46FFF7A2FB204610BDE6
:104B1C00D4500D0013B50E4C2178BFF35B8F11F000
:104B2C00010112D120460191FFF7B1FA019960B150
:104B3C00084A094B0948FFF7D7FF2046FFF7ACFAA4
:104B4C00074A0849054800F007FA044802B010BDAE
:104B5C0098E603209CE6032020E70320A4E703202B
:104B6C002CE60320794A0D007047F8B50646154629
:104B7C000C468F18BC4206D0336814F8011B9B6896
:104B8C0030469847F6E72846F8BD007C0022FFF730
:104B9C009FBB007C0021FFF7A3BB007C0021FFF72B
:104BAC00A7BB007C0021FFF7ABBB007C0021FFF70B
:104BBC00AFBB10B51421044600F0D3F9204610BD4C
:104BCC0010B54FF47A73044608460021C4E901136A
:104BDC00034B236020741146FFF7AAFB204610BD3F
:104BEC0004510D00002240681146FFF72DBC002235
:104BFC0040681146FFF748BC002240681146FFF799
:104C0C0053BC40680022FFF747BC4068002281F08B
:104C1C000101FFF731BC002340681A461946FFF723
:104C2C0023BC002240681146FFF7FEBB40680022FF
:104C3C000221FFF701BC002340681A46FFF7ECBBCA
:104C4C00024B04225A60024A1A607047B8E70320EC
:104C5C002C510D00002340681A46FFF7DDBB40685D
:104C6C0000220221FFF7E8BB002240681146FFF743
:104C7C00DBBB002240681146FFF7E6BB002340680F
:104C8C001A461946FFF7E8BB002340681A46194636
:104C9C00FFF7EABB40680021FFF70EBC406800211B
:104CAC00FFF712BC4068002281F00101FFF7E4BB62
:104CBC0040680022FFF7F0BB002240681146FFF766
:104CCC00F3BB002240681146FFF7DEBB2DE9F04331
:104CDC00002495B016460D460746FFF703FE214605
:104CEC0018220EA8009400F05DF94023CDE90C3495
:104CFC0021466B460CAA3046FFF74AFA04460028B8
:104D0C004CD1024601216868FFF79EFB02218046C8
:104D1C0022466868FFF798FB009E81462146002ECC
:104D2C003CD000293AD17368022B03D00A2B11D046
:104D3C00F669F4E7B8F1000F0AD0716906A80431DE
:104D4C0007ADFFF7FDFD0FCD3C1D0FC42B68237085
:104D5C004146EDE7B9F1000F01D14946E8E7746926
:104D6C00102201A800F01EF906238DF8143001ADB5
:104D7C0004F108031834186859682A4603C208332A
:104D8C00A3421546F7D101A906A807ADFFF7B8FD58
:104D9C000FCD3C1D0FC42B682370DEE70098FFF786
:104DAC00EFF9384615B0BDE8F0830000024B034A1A
:104DBC001A6000225A607047C0E7032068510D004A
:104DCC00232813B502D9002002B010BDA0F10B03AB
:104DDC00022B1AD8174C2178BFF35B8F11F001010D
:104DEC000BD120460191FFF752F9019928B11248D5
:104DFC00FFF7D0FB2046FFF74FF90F4B1878FFF762
:104E0C00A7FA0028DFD10120DEE7012809D800F03D
:104E1C007BF80021007CFFF783FA80F00100C0B220
:104E2C00D2E709380128EED8FFF774FE007CFFF7B3
:104E3C003FFAF2E7C8E70320CCE70320232838B574
:104E4C0004460D460AD8FF2908D0FFF7B9FF28B150
:104E5C0029462046BDE83840FFF7AAB938BD0D28D1
:104E6C0010B504469CBF0E34A4B22046FFF7A8FF31
:104E7C0050B103212046FFF793F9032804D12046B3
:104E8C00BDE81040FFF7ACB9002010BD38B50446A2
:104E9C000D46FFF795FFF0B104212046FFF780F98E
:104EAC00042805D1A9B22046BDE83840FFF790B9D7
:104EBC0002212046FFF774F902280CD12046FFF797
:104ECC007FF9012801D0042805D129462046BDE8E8
:104EDC003840FFF78DB938BD38B500232025438005
:104EEC00142304460380856005610649284600F0BA
:104EFC003AF804496060284600F035F8E060204636
:104F0C0038BD00BF9C510D0030B50F4D2978BFF353
:104F1C005B8F11F0010487B013D12846FFF7B7F867
:104F2C0078B101A8FFF7D8FF01AA21460748FFF77F
:104F3C0047FE2846FFF7B0F8054A0649034800F03B
:104F4C000BF8024807B030BDD8E70320DCE703209C
:104F5C002CE60320754B0D000B460146184600F05D
:104F6C0005B8FFF792B8FFF78EB8000010B5054CE6
:104F7C0013462CB10A4601460220AFF3008010BD47
:104F8C002046FCE7000000000A44914200F1FF3388
:104F9C0000D1704710B511F8014B03F8014F914245
:104FAC00F9D110BD02440346934200D1704703F877
:104FBC00011BF9E738B50D4B1D68AB6B04467BB98B
:104FCC001820FFF791FA0A4A0A4BA863C0E900239C
:104FDC00094B83600B23838101220023C0E9042346
:104FEC00AB6B00221C615A6138BD00BFC8E50320C1
:104FFC000E33CDAB34126DE6ECDE0500034613F830
:10500C00012B002AFBD1181A013870471D400D00E6
:10501C0059400D0081400D0085400D00000000003E
:10502C00000000000000000083450D0079450D00D4
:10503C006F450D0065450D0059450D004D450D00A2
:10504C00A14C0D00A94C0D0041450D0039450D003A
:10505C002F450D0025450D00D94C0D0061707000D9
:10506C0025592D256D2D25645425483A254D3A2575
:10507C0053257A0061736374696D6500000000004C
:10508C00000000008D480D007D480D007F480D008C
:10509C0000000000000000006D490D00D5490D0016
:1050AC00AB490D003D460D009D490D006F490D00AB
:1050BC007F490D00CF490D008F490D0069490D0046
:1050CC000000000000000000794A0D00E54A0D00C8
:1050DC00BD4A0D003D460D008D4A0D00A94A0D003C
:1050EC009B4A0D00B74A0D007B4A0D007F4A0D000C
:1050FC000000000000000000754B0D00BF4B0D00C0
:10510C00974B0D00774B0D009F4B0D00A74B0D00DF
:10511C00AF4B0D00B74B0D0000000000000000006D
:10512C00434C0D00394C0D002F4C0D00F14B0D0074
:10513C00E7460D00234C0D00A14C0D00A94C0D00B1
:10514C00174C0D000F4C0D00054C0D00FB4B0D00CA
:10515C00D94C0D000000000000000000614C0D0057
:10516C006B4C0D00754C0D007F4C0D00894C0D00E7
:10517C00954C0D00A14C0D00A94C0D00B14C0D002F
:10518C00BD4C0D00C54C0D00CF4C0D00D94C0D0085
:10519C000000000051410D008D450D00B5450D007E
:1051AC0015460D00F5460D0005470D003D470D0059
:1051BC004D4C0D00B94D0D0000000000000000002A
:0451CC0000000000DF
:0451D00000000000DB
:1051D400FF0F000080500D00CCE50320000000000C
:1051E40000000000000000000000000000000000BB
:1051F40000000000000000000000000000000000AB
:10520400000000000000000000000000000000009A
:10521400000000000000000000000000000000008A
:10522400000000000000000000000000000000007A
:0C5234000000000000000000000000006E
:10524000FFFFFFFF00000102030405060708090A2B
:105250000B0C0D0E0F101112131415161718191A26
:085260001B1C1D1E1F2028006D
:04526800785634122E
:04000003D000401CCD
:00000001FF
